{
  "contractName": "Auction",
  "abi": [
    {
      "inputs": [],
      "stateMutability": "nonpayable",
      "type": "constructor"
    },
    {
      "inputs": [
        {
          "internalType": "string",
          "name": "str",
          "type": "string"
        }
      ],
      "name": "auctionalreadyended",
      "type": "error"
    },
    {
      "inputs": [
        {
          "internalType": "string",
          "name": "s",
          "type": "string"
        }
      ],
      "name": "auctionnotended",
      "type": "error"
    },
    {
      "inputs": [
        {
          "internalType": "uint256",
          "name": "bid",
          "type": "uint256"
        },
        {
          "internalType": "string",
          "name": "message",
          "type": "string"
        }
      ],
      "name": "bidnotminimum",
      "type": "error"
    },
    {
      "inputs": [
        {
          "internalType": "string",
          "name": "s",
          "type": "string"
        }
      ],
      "name": "endcalled",
      "type": "error"
    },
    {
      "inputs": [
        {
          "internalType": "string",
          "name": "s",
          "type": "string"
        }
      ],
      "name": "notallowed",
      "type": "error"
    },
    {
      "anonymous": false,
      "inputs": [
        {
          "indexed": false,
          "internalType": "address",
          "name": "winner",
          "type": "address"
        },
        {
          "indexed": false,
          "internalType": "uint256",
          "name": "bid",
          "type": "uint256"
        }
      ],
      "name": "AuctionEnded",
      "type": "event"
    },
    {
      "anonymous": false,
      "inputs": [
        {
          "indexed": false,
          "internalType": "address",
          "name": "bidder",
          "type": "address"
        },
        {
          "indexed": false,
          "internalType": "uint256",
          "name": "bid",
          "type": "uint256"
        }
      ],
      "name": "HighestBidIncr",
      "type": "event"
    },
    {
      "inputs": [],
      "name": "admin",
      "outputs": [
        {
          "internalType": "address",
          "name": "",
          "type": "address"
        }
      ],
      "stateMutability": "view",
      "type": "function",
      "constant": true
    },
    {
      "inputs": [],
      "name": "auctioneer",
      "outputs": [
        {
          "internalType": "address payable",
          "name": "",
          "type": "address"
        }
      ],
      "stateMutability": "view",
      "type": "function",
      "constant": true
    },
    {
      "inputs": [],
      "name": "auctionendtime",
      "outputs": [
        {
          "internalType": "uint256",
          "name": "",
          "type": "uint256"
        }
      ],
      "stateMutability": "view",
      "type": "function",
      "constant": true
    },
    {
      "inputs": [],
      "name": "basePrice",
      "outputs": [
        {
          "internalType": "uint256",
          "name": "",
          "type": "uint256"
        }
      ],
      "stateMutability": "view",
      "type": "function",
      "constant": true
    },
    {
      "inputs": [],
      "name": "ended",
      "outputs": [
        {
          "internalType": "bool",
          "name": "",
          "type": "bool"
        }
      ],
      "stateMutability": "view",
      "type": "function",
      "constant": true
    },
    {
      "inputs": [],
      "name": "highestbid",
      "outputs": [
        {
          "internalType": "uint256",
          "name": "",
          "type": "uint256"
        }
      ],
      "stateMutability": "view",
      "type": "function",
      "constant": true
    },
    {
      "inputs": [],
      "name": "highestbidder",
      "outputs": [
        {
          "internalType": "address",
          "name": "",
          "type": "address"
        }
      ],
      "stateMutability": "view",
      "type": "function",
      "constant": true
    },
    {
      "inputs": [
        {
          "internalType": "uint256",
          "name": "baseprice",
          "type": "uint256"
        },
        {
          "internalType": "uint256",
          "name": "duration",
          "type": "uint256"
        }
      ],
      "name": "setAuctioneer",
      "outputs": [],
      "stateMutability": "nonpayable",
      "type": "function"
    },
    {
      "inputs": [],
      "name": "bid",
      "outputs": [],
      "stateMutability": "payable",
      "type": "function",
      "payable": true
    },
    {
      "inputs": [],
      "name": "withdraw",
      "outputs": [
        {
          "internalType": "bool",
          "name": "",
          "type": "bool"
        }
      ],
      "stateMutability": "nonpayable",
      "type": "function"
    },
    {
      "inputs": [],
      "name": "auctionend",
      "outputs": [],
      "stateMutability": "nonpayable",
      "type": "function"
    },
    {
      "inputs": [],
      "name": "cancelauction",
      "outputs": [],
      "stateMutability": "nonpayable",
      "type": "function"
    }
  ],
  "bytecode": "0x608060405234801561001057600080fd5b50336000806101000a81548173ffffffffffffffffffffffffffffffffffffffff021916908373ffffffffffffffffffffffffffffffffffffffff1602179055506117b6806100606000396000f3fe6080604052600436106100a75760003560e01c8063a6a55d7111610064578063a6a55d711461018d578063a967d000146101a4578063b9d1fb61146101cd578063c7876ea4146101e4578063dcbfb0ff1461020f578063f851a4401461023a576100a7565b806312fa6feb146100ac5780631998aeef146100d75780633ad08463146100e15780633ccfd60b1461010c57806341709bcb146101375780635ec2c7bf14610162575b600080fd5b3480156100b857600080fd5b506100c1610265565b6040516100ce91906110ba565b60405180910390f35b6100df610278565b005b3480156100ed57600080fd5b506100f66106db565b60405161010391906110ee565b60405180910390f35b34801561011857600080fd5b506101216106e1565b60405161012e91906110ba565b60405180910390f35b34801561014357600080fd5b5061014c610928565b60405161015991906110ee565b60405180910390f35b34801561016e57600080fd5b5061017761092e565b604051610184919061114a565b60405180910390f35b34801561019957600080fd5b506101a2610954565b005b3480156101b057600080fd5b506101cb60048036038101906101c69190611196565b610be3565b005b3480156101d957600080fd5b506101e2610d1b565b005b3480156101f057600080fd5b506101f961104f565b60405161020691906110ee565b60405180910390f35b34801561021b57600080fd5b50610224611055565b60405161023191906111f7565b60405180910390f35b34801561024657600080fd5b5061024f61107b565b60405161025c91906111f7565b60405180910390f35b600860009054906101000a900460ff1681565b3360008054906101000a900473ffffffffffffffffffffffffffffffffffffffff1673ffffffffffffffffffffffffffffffffffffffff168173ffffffffffffffffffffffffffffffffffffffff1603610307576040517f3206ab9d0000000000000000000000000000000000000000000000000000000081526004016102fe90611295565b60405180910390fd5b33600160009054906101000a900473ffffffffffffffffffffffffffffffffffffffff1673ffffffffffffffffffffffffffffffffffffffff168173ffffffffffffffffffffffffffffffffffffffff1603610398576040517f3206ab9d00000000000000000000000000000000000000000000000000000000815260040161038f90611327565b60405180910390fd5b6005544211156103dd576040517f8f42acbf0000000000000000000000000000000000000000000000000000000081526004016103d490611393565b60405180910390fd5b60025434600660003373ffffffffffffffffffffffffffffffffffffffff1673ffffffffffffffffffffffffffffffffffffffff1681526020019081526020016000205461042b91906113e2565b1015610470576002546040517f71be12ab0000000000000000000000000000000000000000000000000000000081526004016104679190611462565b60405180910390fd5b60045434600660003373ffffffffffffffffffffffffffffffffffffffff1673ffffffffffffffffffffffffffffffffffffffff168152602001908152602001600020546104be91906113e2565b11610502576004546040517f71be12ab0000000000000000000000000000000000000000000000000000000081526004016104f991906114dc565b60405180910390fd5b6000600454146105875760045460066000600360009054906101000a900473ffffffffffffffffffffffffffffffffffffffff1673ffffffffffffffffffffffffffffffffffffffff1673ffffffffffffffffffffffffffffffffffffffff168152602001908152602001600020600082825461057f91906113e2565b925050819055505b33600360006101000a81548173ffffffffffffffffffffffffffffffffffffffff021916908373ffffffffffffffffffffffffffffffffffffffff1602179055503460066000600360009054906101000a900473ffffffffffffffffffffffffffffffffffffffff1673ffffffffffffffffffffffffffffffffffffffff1673ffffffffffffffffffffffffffffffffffffffff1681526020019081526020016000205461063591906113e2565b6004819055506007339080600181540180825580915050600190039060005260206000200160009091909190916101000a81548173ffffffffffffffffffffffffffffffffffffffff021916908373ffffffffffffffffffffffffffffffffffffffff1602179055507f0d74ab828ff955304266cd09d67ade68bb2bf26eb6111f34ce1c0ab099affc6c33346040516106cf92919061150a565b60405180910390a15050565b60045481565b60003360008054906101000a900473ffffffffffffffffffffffffffffffffffffffff1673ffffffffffffffffffffffffffffffffffffffff168173ffffffffffffffffffffffffffffffffffffffff1603610772576040517f3206ab9d00000000000000000000000000000000000000000000000000000000815260040161076990611295565b60405180910390fd5b33600160009054906101000a900473ffffffffffffffffffffffffffffffffffffffff1673ffffffffffffffffffffffffffffffffffffffff168173ffffffffffffffffffffffffffffffffffffffff1603610803576040517f3206ab9d0000000000000000000000000000000000000000000000000000000081526004016107fa90611327565b60405180910390fd5b6000600660003373ffffffffffffffffffffffffffffffffffffffff1673ffffffffffffffffffffffffffffffffffffffff168152602001908152602001600020549050600081111561091d576000600660003373ffffffffffffffffffffffffffffffffffffffff1673ffffffffffffffffffffffffffffffffffffffff168152602001908152602001600020819055503373ffffffffffffffffffffffffffffffffffffffff166108fc829081150290604051600060405180830381858888f1935050505061091c5780600660003373ffffffffffffffffffffffffffffffffffffffff1673ffffffffffffffffffffffffffffffffffffffff168152602001908152602001600020819055506000935050610923565b5b60019350505b505090565b60055481565b600160009054906101000a900473ffffffffffffffffffffffffffffffffffffffff1681565b3360008054906101000a900473ffffffffffffffffffffffffffffffffffffffff1673ffffffffffffffffffffffffffffffffffffffff168173ffffffffffffffffffffffffffffffffffffffff16146109e3576040517f3206ab9d0000000000000000000000000000000000000000000000000000000081526004016109da906115a5565b60405180910390fd5b33600160009054906101000a900473ffffffffffffffffffffffffffffffffffffffff1673ffffffffffffffffffffffffffffffffffffffff168173ffffffffffffffffffffffffffffffffffffffff1603610a74576040517f3206ab9d000000000000000000000000000000000000000000000000000000008152600401610a6b90611327565b60405180910390fd5b600554421115610ab9576040517f8f42acbf000000000000000000000000000000000000000000000000000000008152600401610ab090611611565b60405180910390fd5b60005b600780549050811015610bde5760078181548110610add57610adc611631565b5b9060005260206000200160009054906101000a900473ffffffffffffffffffffffffffffffffffffffff1673ffffffffffffffffffffffffffffffffffffffff166108fc6006600060078581548110610b3957610b38611631565b5b9060005260206000200160009054906101000a900473ffffffffffffffffffffffffffffffffffffffff1673ffffffffffffffffffffffffffffffffffffffff1673ffffffffffffffffffffffffffffffffffffffff168152602001908152602001600020549081150290604051600060405180830381858888f19350505050158015610bca573d6000803e3d6000fd5b508080610bd690611660565b915050610abc565b505050565b3360008054906101000a900473ffffffffffffffffffffffffffffffffffffffff1673ffffffffffffffffffffffffffffffffffffffff168173ffffffffffffffffffffffffffffffffffffffff1603610c72576040517f3206ab9d000000000000000000000000000000000000000000000000000000008152600401610c6990611295565b60405180910390fd5b33600160006101000a81548173ffffffffffffffffffffffffffffffffffffffff021916908373ffffffffffffffffffffffffffffffffffffffff160217905550826002819055508142610cc691906113e2565b6005819055506000600360006101000a81548173ffffffffffffffffffffffffffffffffffffffff021916908373ffffffffffffffffffffffffffffffffffffffff1602179055506000600481905550505050565b600554421015610d60576040517f2b818d43000000000000000000000000000000000000000000000000000000008152600401610d57906116f4565b60405180910390fd5b600860009054906101000a900460ff1615610db0576040517f64776b27000000000000000000000000000000000000000000000000000000008152600401610da790611760565b60405180910390fd5b6001600860006101000a81548160ff021916908315150217905550600160009054906101000a900473ffffffffffffffffffffffffffffffffffffffff1673ffffffffffffffffffffffffffffffffffffffff166108fc6004549081150290604051600060405180830381858888f19350505050158015610e35573d6000803e3d6000fd5b5060005b600780549050811015610fef57600360009054906101000a900473ffffffffffffffffffffffffffffffffffffffff1673ffffffffffffffffffffffffffffffffffffffff1660078281548110610e9357610e92611631565b5b9060005260206000200160009054906101000a900473ffffffffffffffffffffffffffffffffffffffff1673ffffffffffffffffffffffffffffffffffffffff1614610fdc5760078181548110610eed57610eec611631565b5b9060005260206000200160009054906101000a900473ffffffffffffffffffffffffffffffffffffffff1673ffffffffffffffffffffffffffffffffffffffff166108fc6006600060078581548110610f4957610f48611631565b5b9060005260206000200160009054906101000a900473ffffffffffffffffffffffffffffffffffffffff1673ffffffffffffffffffffffffffffffffffffffff1673ffffffffffffffffffffffffffffffffffffffff168152602001908152602001600020549081150290604051600060405180830381858888f19350505050158015610fda573d6000803e3d6000fd5b505b8080610fe790611660565b915050610e39565b507fdaec4582d5d9595688c8c98545fdd1c696d41c6aeaeb636737e84ed2f5c00eda600360009054906101000a900473ffffffffffffffffffffffffffffffffffffffff1660045460405161104592919061150a565b60405180910390a1565b60025481565b600360009054906101000a900473ffffffffffffffffffffffffffffffffffffffff1681565b60008054906101000a900473ffffffffffffffffffffffffffffffffffffffff1681565b60008115159050919050565b6110b48161109f565b82525050565b60006020820190506110cf60008301846110ab565b92915050565b6000819050919050565b6110e8816110d5565b82525050565b600060208201905061110360008301846110df565b92915050565b600073ffffffffffffffffffffffffffffffffffffffff82169050919050565b600061113482611109565b9050919050565b61114481611129565b82525050565b600060208201905061115f600083018461113b565b92915050565b600080fd5b611173816110d5565b811461117e57600080fd5b50565b6000813590506111908161116a565b92915050565b600080604083850312156111ad576111ac611165565b5b60006111bb85828601611181565b92505060206111cc85828601611181565b9150509250929050565b60006111e182611109565b9050919050565b6111f1816111d6565b82525050565b600060208201905061120c60008301846111e8565b92915050565b600082825260208201905092915050565b7f746869732066756e6374696f6e616c697479206973206e6f7420616c6c6f776560008201527f6420666f722041646d696e000000000000000000000000000000000000000000602082015250565b600061127f602b83611212565b915061128a82611223565b604082019050919050565b600060208201905081810360008301526112ae81611272565b9050919050565b7f746869732066756e6374696f6e616c697479206973206e6f7420666f7220617560008201527f6374696f6e656572000000000000000000000000000000000000000000000000602082015250565b6000611311602883611212565b915061131c826112b5565b604082019050919050565b6000602082019050818103600083015261134081611304565b9050919050565b7f41756374696f6e2068617320616c726561647920656e64656400000000000000600082015250565b600061137d601983611212565b915061138882611347565b602082019050919050565b600060208201905081810360008301526113ac81611370565b9050919050565b7f4e487b7100000000000000000000000000000000000000000000000000000000600052601160045260246000fd5b60006113ed826110d5565b91506113f8836110d5565b92508282019050808211156114105761140f6113b3565b5b92915050565b7f6d696e696d756d206269642061206e6565646564000000000000000000000000600082015250565b600061144c601483611212565b915061145782611416565b602082019050919050565b600060408201905061147760008301846110df565b81810360208301526114888161143f565b905092915050565b7f6d696e696d756d20626964206e65656465640000000000000000000000000000600082015250565b60006114c6601283611212565b91506114d182611490565b602082019050919050565b60006040820190506114f160008301846110df565b8181036020830152611502816114b9565b905092915050565b600060408201905061151f60008301856111e8565b61152c60208301846110df565b9392505050565b7f746869732066756e6374696f6e616c6974696573206973206f6e6c7920666f7260008201527f2041646d696e0000000000000000000000000000000000000000000000000000602082015250565b600061158f602683611212565b915061159a82611533565b604082019050919050565b600060208201905081810360008301526115be81611582565b9050919050565b7f61756369746f6e2068617320616c726561647920656e64656400000000000000600082015250565b60006115fb601983611212565b9150611606826115c5565b602082019050919050565b6000602082019050818103600083015261162a816115ee565b9050919050565b7f4e487b7100000000000000000000000000000000000000000000000000000000600052603260045260246000fd5b600061166b826110d5565b91507fffffffffffffffffffffffffffffffffffffffffffffffffffffffffffffffff820361169d5761169c6113b3565b5b600182019050919050565b7f61756374696f6e206973206e6f7420656e646564207965740000000000000000600082015250565b60006116de601883611212565b91506116e9826116a8565b602082019050919050565b6000602082019050818103600083015261170d816116d1565b9050919050565b7f656e642061756374696f6e20616c72656164792063616c6c6564000000000000600082015250565b600061174a601a83611212565b915061175582611714565b602082019050919050565b600060208201905081810360008301526117798161173d565b905091905056fea264697066735822122052060c86e30173b8520ec9d55c1012fff4e64451f538928ddfd06cca37bfb83d64736f6c63430008120033",
  "immutableReferences": {},
  "source": "// SPDX-License-Identifier: UNLICENSED\r\n\r\n// pragma solidity ^0.8.18;\r\n\r\n// contract Auction\r\n// {\r\n//     address public admin;\r\n//     address payable public auctioneer;\r\n   \r\n//     uint public basePrice;\r\n    \r\n\r\n//     address public highestbidder;\r\n//     uint public highestbid;\r\n\r\n//     uint public auctionendtime;\r\n\r\n//     mapping(address => uint) biddetails;\r\n//     address payable[] biddersaddress;\r\n\r\n//     bool public ended;\r\n\r\n//     event HighestBidIncr(address bidder,uint bid);\r\n//     event AuctionEnded(address winner,uint bid);\r\n\r\n//     error auctionalreadyended(string str);\r\n//     error bidnotminimum(uint bid,string message);\r\n//     error auctionnotended(string s);\r\n//     error endcalled(string s);\r\n//     error notallowed(string s);\r\n\r\n//     modifier checkended()\r\n//     {\r\n//         if(block.timestamp >= auctionendtime)\r\n//         {\r\n//             ended = true;\r\n//         }\r\n//         _;\r\n//     }\r\n\r\n//     modifier checkseller(address adminadr)\r\n//     {\r\n//         if(adminadr == auctioneer)\r\n//         {\r\n//             revert notallowed(\"this functionality is not for auctioneer\");\r\n//         }\r\n//         _;\r\n//     }\r\n\r\n//     modifier checkowner(address adr)\r\n//     {\r\n//         if(adr == admin)\r\n//         {\r\n//             revert notallowed(\"this functionality is not allowed for Admin\");\r\n//         }\r\n//         _;\r\n//     }\r\n\r\n//     modifier checknotowner(address adr)\r\n//     {\r\n//         if(adr !=admin)\r\n//         {\r\n//             revert notallowed(\"this functionalities is only for Admin\");\r\n//         }\r\n//         _;\r\n//     }\r\n\r\n  \r\n\r\n//     constructor()\r\n//     {\r\n//         admin = msg.sender;\r\n//     }\r\n\r\n//     function setAuctioneer(uint baseprice,uint duration) public checkowner(msg.sender){\r\n       \r\n//         auctioneer = payable(msg.sender);\r\n//         basePrice = baseprice;\r\n//         auctionendtime = block.timestamp + duration;\r\n//         highestbidder = 0x0000000000000000000000000000000000000000;\r\n//         highestbid=0;\r\n//     }\r\n\r\n  \r\n\r\n//     function bid() external payable checkowner(msg.sender) checkseller(msg.sender) checkended() {\r\n        \r\n//         if(block.timestamp > auctionendtime)\r\n//         {\r\n//             revert auctionalreadyended(\"Auction has already ended\");\r\n//         }\r\n//         if(biddetails[msg.sender]+msg.value < basePrice)\r\n//         {\r\n//             revert bidnotminimum(basePrice,\"minimum bid a needed\");\r\n//         }\r\n//         if((biddetails[msg.sender]+msg.value) <= highestbid)\r\n//         {\r\n//             revert bidnotminimum(highestbid,\"minimum bid needed\");\r\n//         }\r\n//         if(highestbid !=0)\r\n//         {\r\n//             biddetails[highestbidder] +=highestbid;\r\n//         }\r\n\r\n//         highestbidder = msg.sender;\r\n//         highestbid = biddetails[highestbidder] + msg.value;\r\n//         biddersaddress.push(payable(msg.sender));\r\n//         emit HighestBidIncr(msg.sender,msg.value);\r\n//     }\r\n\r\n\r\n//     function withdraw() external checkowner(msg.sender) checkseller(msg.sender) checkended() returns(bool)\r\n//     {\r\n//         uint amount = biddetails[msg.sender];\r\n//         if(amount>0)\r\n//         {\r\n//             biddetails[msg.sender] = 0;\r\n//             if(!payable(msg.sender).send(amount))\r\n//             {\r\n//                 biddetails[msg.sender] = amount;\r\n//                 return false;\r\n//             }\r\n//         }\r\n//         return true;\r\n//     }\r\n\r\n//     function auctionend()  external\r\n//     {\r\n//         if(block.timestamp < auctionendtime)\r\n//         {\r\n//             revert auctionnotended(\"auction is not ended yet\");\r\n//         }\r\n//         if(ended)\r\n//         {\r\n//             revert endcalled(\"end auction already called\");\r\n//         }\r\n\r\n//         ended = true;\r\n//         auctioneer.transfer(highestbid);\r\n//         for(uint i=0;i<biddersaddress.length;i++)\r\n//         {\r\n//             if(biddersaddress[i] != highestbidder)\r\n//             {\r\n//                 biddersaddress[i].transfer(biddetails[biddersaddress[i]]);\r\n//             }\r\n//         }\r\n//         emit AuctionEnded(highestbidder,highestbid);\r\n\r\n        \r\n//     }\r\n\r\n//     function cancelauction() external checknotowner(msg.sender) checkseller(msg.sender) checkended()\r\n//     {\r\n//         if(block.timestamp > auctionendtime)\r\n//         {\r\n//             revert auctionalreadyended(\"auciton has already ended\");\r\n//         }\r\n//         for(uint i=0;i<biddersaddress.length;i++)\r\n//         {\r\n//             // biddetails[biddersaddress[i]].transfer(biddetails)\r\n//             biddersaddress[i].transfer(biddetails[biddersaddress[i]]);\r\n//         }\r\n//     }\r\n\r\n// }\r\n\r\n\r\npragma solidity ^0.8.18;\r\n\r\ncontract Auction\r\n{\r\n    address public admin;\r\n    address payable public auctioneer;\r\n   \r\n    uint public basePrice;\r\n    \r\n\r\n    address public highestbidder;\r\n    uint public highestbid;\r\n\r\n    uint public auctionendtime;\r\n\r\n    mapping(address => uint) biddetails;\r\n    address payable[] biddersaddress;\r\n\r\n    bool public ended;\r\n\r\n    event HighestBidIncr(address bidder,uint bid);\r\n    event AuctionEnded(address winner,uint bid);\r\n\r\n    error auctionalreadyended(string str);\r\n    error bidnotminimum(uint bid,string message);\r\n    error auctionnotended(string s);\r\n    error endcalled(string s);\r\n    error notallowed(string s);\r\n\r\n    modifier checkseller(address adminadr)\r\n    {\r\n        if(adminadr == auctioneer)\r\n        {\r\n            revert notallowed(\"this functionality is not for auctioneer\");\r\n        }\r\n        _;\r\n    }\r\n\r\n    modifier checkowner(address adr)\r\n    {\r\n        if(adr == admin)\r\n        {\r\n            revert notallowed(\"this functionality is not allowed for Admin\");\r\n        }\r\n        _;\r\n    }\r\n\r\n    modifier checknotowner(address adr)\r\n    {\r\n        if(adr !=admin)\r\n        {\r\n            revert notallowed(\"this functionalities is only for Admin\");\r\n        }\r\n        _;\r\n    }\r\n\r\n  \r\n\r\n    constructor()\r\n    {\r\n        admin = msg.sender;\r\n    }\r\n\r\n    function setAuctioneer(uint baseprice,uint duration) public checkowner(msg.sender){\r\n       \r\n        auctioneer = payable(msg.sender);\r\n        basePrice = baseprice;\r\n        auctionendtime = block.timestamp + duration;\r\n        highestbidder = 0x0000000000000000000000000000000000000000;\r\n        highestbid=0;\r\n    }\r\n\r\n  \r\n\r\n    function bid() external payable checkowner(msg.sender) checkseller(msg.sender) {\r\n        \r\n        if(block.timestamp > auctionendtime)\r\n        {\r\n            revert auctionalreadyended(\"Auction has already ended\");\r\n        }\r\n        if(biddetails[msg.sender]+msg.value < basePrice)\r\n        {\r\n            revert bidnotminimum(basePrice,\"minimum bid a needed\");\r\n        }\r\n        if((biddetails[msg.sender]+msg.value) <= highestbid)\r\n        {\r\n            revert bidnotminimum(highestbid,\"minimum bid needed\");\r\n        }\r\n        if(highestbid !=0)\r\n        {\r\n            biddetails[highestbidder] +=highestbid;\r\n        }\r\n\r\n        highestbidder = msg.sender;\r\n        highestbid = biddetails[highestbidder] + msg.value;\r\n        biddersaddress.push(payable(msg.sender));\r\n        emit HighestBidIncr(msg.sender,msg.value);\r\n    }\r\n\r\n\r\n    function withdraw() external checkowner(msg.sender) checkseller(msg.sender) returns(bool)\r\n    {\r\n        uint amount = biddetails[msg.sender];\r\n        if(amount>0)\r\n        {\r\n            biddetails[msg.sender] = 0;\r\n            if(!payable(msg.sender).send(amount))\r\n            {\r\n                biddetails[msg.sender] = amount;\r\n                return false;\r\n            }\r\n        }\r\n        return true;\r\n    }\r\n\r\n    function auctionend() external\r\n    {\r\n        if(block.timestamp < auctionendtime)\r\n        {\r\n            revert auctionnotended(\"auction is not ended yet\");\r\n        }\r\n        if(ended)\r\n        {\r\n            revert endcalled(\"end auction already called\");\r\n        }\r\n\r\n        ended = true;\r\n        auctioneer.transfer(highestbid);\r\n        for(uint i=0;i<biddersaddress.length;i++)\r\n        {\r\n            if(biddersaddress[i] != highestbidder)\r\n            {\r\n                biddersaddress[i].transfer(biddetails[biddersaddress[i]]);\r\n            }\r\n        }\r\n        emit AuctionEnded(highestbidder,highestbid);\r\n\r\n        \r\n    }\r\n\r\n    function cancelauction() external checknotowner(msg.sender) checkseller(msg.sender)\r\n    {\r\n        if(block.timestamp > auctionendtime)\r\n        {\r\n            revert auctionalreadyended(\"auciton has already ended\");\r\n        }\r\n        for(uint i=0;i<biddersaddress.length;i++)\r\n        {\r\n            // biddetails[biddersaddress[i]].transfer(biddetails)\r\n            biddersaddress[i].transfer(biddetails[biddersaddress[i]]);\r\n        }\r\n    }\r\n\r\n}",
  "sourcePath": "C:\\Users\\Shubham\\OneDrive\\Desktop\\Auction\\contracts\\Auction.sol",
  "compiler": {
    "name": "solc",
    "version": "0.8.18+commit.87f61d96.Emscripten.clang"
  },
  "schemaVersion": "3.4.12",
  "updatedAt": "2023-05-05T13:42:24.176Z",
  "networkType": "ethereum",
  "devdoc": {
    "kind": "dev",
    "methods": {},
    "version": 1
  },
  "userdoc": {
    "kind": "user",
    "methods": {},
    "version": 1
  }
}