{
  "contractName": "MultiAuction",
  "abi": [
    {
      "inputs": [],
      "stateMutability": "nonpayable",
      "type": "constructor"
    },
    {
      "anonymous": false,
      "inputs": [
        {
          "indexed": false,
          "internalType": "uint256",
          "name": "auctionIndex",
          "type": "uint256"
        },
        {
          "indexed": false,
          "internalType": "address",
          "name": "winner",
          "type": "address"
        },
        {
          "indexed": false,
          "internalType": "uint256",
          "name": "amount",
          "type": "uint256"
        }
      ],
      "name": "AuctionEnded",
      "type": "event"
    },
    {
      "anonymous": false,
      "inputs": [
        {
          "indexed": true,
          "internalType": "address",
          "name": "owner",
          "type": "address"
        },
        {
          "indexed": false,
          "internalType": "string",
          "name": "itemName",
          "type": "string"
        },
        {
          "indexed": false,
          "internalType": "uint256",
          "name": "auctionEndTime",
          "type": "uint256"
        }
      ],
      "name": "NewAuction",
      "type": "event"
    },
    {
      "anonymous": false,
      "inputs": [
        {
          "indexed": false,
          "internalType": "uint256",
          "name": "auctionIndex",
          "type": "uint256"
        },
        {
          "indexed": true,
          "internalType": "address",
          "name": "bidder",
          "type": "address"
        },
        {
          "indexed": false,
          "internalType": "uint256",
          "name": "amount",
          "type": "uint256"
        }
      ],
      "name": "NewBid",
      "type": "event"
    },
    {
      "inputs": [],
      "name": "admin",
      "outputs": [
        {
          "internalType": "address",
          "name": "",
          "type": "address"
        }
      ],
      "stateMutability": "view",
      "type": "function",
      "constant": true
    },
    {
      "inputs": [],
      "name": "auctionDurationMinutes",
      "outputs": [
        {
          "internalType": "uint256",
          "name": "",
          "type": "uint256"
        }
      ],
      "stateMutability": "view",
      "type": "function",
      "constant": true
    },
    {
      "inputs": [
        {
          "internalType": "uint256",
          "name": "",
          "type": "uint256"
        }
      ],
      "name": "auctionss",
      "outputs": [
        {
          "internalType": "address payable",
          "name": "owner",
          "type": "address"
        },
        {
          "internalType": "string",
          "name": "itemName",
          "type": "string"
        },
        {
          "internalType": "uint256",
          "name": "auctionEndTime",
          "type": "uint256"
        },
        {
          "internalType": "uint256",
          "name": "highestBid",
          "type": "uint256"
        },
        {
          "internalType": "address",
          "name": "highestBidder",
          "type": "address"
        },
        {
          "internalType": "bool",
          "name": "ended",
          "type": "bool"
        }
      ],
      "stateMutability": "view",
      "type": "function",
      "constant": true
    },
    {
      "inputs": [
        {
          "internalType": "uint256",
          "name": "_duration",
          "type": "uint256"
        }
      ],
      "name": "setduration",
      "outputs": [],
      "stateMutability": "nonpayable",
      "type": "function"
    },
    {
      "inputs": [
        {
          "internalType": "string",
          "name": "_itemName",
          "type": "string"
        }
      ],
      "name": "createAuction",
      "outputs": [],
      "stateMutability": "nonpayable",
      "type": "function"
    },
    {
      "inputs": [
        {
          "internalType": "uint256",
          "name": "auctionIndex",
          "type": "uint256"
        }
      ],
      "name": "bid",
      "outputs": [],
      "stateMutability": "payable",
      "type": "function",
      "payable": true
    },
    {
      "inputs": [
        {
          "internalType": "uint256",
          "name": "auctionIndex",
          "type": "uint256"
        }
      ],
      "name": "endAuction",
      "outputs": [],
      "stateMutability": "nonpayable",
      "type": "function"
    },
    {
      "inputs": [],
      "name": "getAuctionsCount",
      "outputs": [
        {
          "internalType": "uint256",
          "name": "",
          "type": "uint256"
        }
      ],
      "stateMutability": "view",
      "type": "function",
      "constant": true
    },
    {
      "inputs": [
        {
          "internalType": "uint256",
          "name": "auctionIndex",
          "type": "uint256"
        }
      ],
      "name": "getAuctionDetails",
      "outputs": [
        {
          "internalType": "address",
          "name": "",
          "type": "address"
        },
        {
          "internalType": "string",
          "name": "",
          "type": "string"
        },
        {
          "internalType": "uint256",
          "name": "",
          "type": "uint256"
        },
        {
          "internalType": "uint256",
          "name": "",
          "type": "uint256"
        },
        {
          "internalType": "address",
          "name": "",
          "type": "address"
        },
        {
          "internalType": "bool",
          "name": "",
          "type": "bool"
        }
      ],
      "stateMutability": "view",
      "type": "function",
      "constant": true
    }
  ],
  "bytecode": "0x608060405234801561001057600080fd5b50336000806101000a81548173ffffffffffffffffffffffffffffffffffffffff021916908373ffffffffffffffffffffffffffffffffffffffff1602179055506114cb806100606000396000f3fe6080604052600436106100865760003560e01c8063b9a2de3a11610059578063b9a2de3a1461013b578063e45c187914610164578063ebf7c1621461018f578063f20e5e35146101ba578063f851a440146101fc57610086565b806320336b4c1461008b578063454a2ab3146100b45780635c9c77f3146100d05780638e27cb2514610112575b600080fd5b34801561009757600080fd5b506100b260048036038101906100ad9190610abd565b610227565b005b6100ce60048036038101906100c99190610abd565b610231565b005b3480156100dc57600080fd5b506100f760048036038101906100f29190610abd565b6104f7565b60405161010996959493929190610c06565b60405180910390f35b34801561011e57600080fd5b5061013960048036038101906101349190610da3565b610608565b005b34801561014757600080fd5b50610162600480360381019061015d9190610abd565b61076f565b005b34801561017057600080fd5b50610179610912565b6040516101869190610dec565b60405180910390f35b34801561019b57600080fd5b506101a461091c565b6040516101b19190610dec565b60405180910390f35b3480156101c657600080fd5b506101e160048036038101906101dc9190610abd565b610922565b6040516101f396959493929190610e07565b60405180910390f35b34801561020857600080fd5b50610211610a4f565b60405161021e9190610e6f565b60405180910390f35b8060018190555050565b60006003600083815260200190815260200160002090508060060160009054906101000a900460ff161561029a576040517f08c379a000000000000000000000000000000000000000000000000000000000815260040161029190610ed6565b60405180910390fd5b806002015442106102e0576040517f08c379a00000000000000000000000000000000000000000000000000000000081526004016102d790610ed6565b60405180910390fd5b80600301543411610326576040517f08c379a000000000000000000000000000000000000000000000000000000000815260040161031d90610f42565b60405180910390fd5b600073ffffffffffffffffffffffffffffffffffffffff168160040160009054906101000a900473ffffffffffffffffffffffffffffffffffffffff1673ffffffffffffffffffffffffffffffffffffffff16146103ff5780600301548160050160008360040160009054906101000a900473ffffffffffffffffffffffffffffffffffffffff1673ffffffffffffffffffffffffffffffffffffffff1673ffffffffffffffffffffffffffffffffffffffff16815260200190815260200160002060008282546103f79190610f91565b925050819055505b348160030181905550338160040160006101000a81548173ffffffffffffffffffffffffffffffffffffffff021916908373ffffffffffffffffffffffffffffffffffffffff160217905550348160050160003373ffffffffffffffffffffffffffffffffffffffff1673ffffffffffffffffffffffffffffffffffffffff168152602001908152602001600020600082825461049c9190610f91565b925050819055503373ffffffffffffffffffffffffffffffffffffffff167f558a0d5d5468d74b0db24c74eb348b42271c2ebb4c9e953ced38aaed95fa436183346040516104eb929190610fc5565b60405180910390a25050565b60036020528060005260406000206000915090508060000160009054906101000a900473ffffffffffffffffffffffffffffffffffffffff16908060010180546105409061101d565b80601f016020809104026020016040519081016040528092919081815260200182805461056c9061101d565b80156105b95780601f1061058e576101008083540402835291602001916105b9565b820191906000526020600020905b81548152906001019060200180831161059c57829003601f168201915b5050505050908060020154908060030154908060040160009054906101000a900473ffffffffffffffffffffffffffffffffffffffff16908060060160009054906101000a900460ff16905086565b600060036000600260008154809291906106219061104e565b9190505581526020019081526020016000209050338160000160006101000a81548173ffffffffffffffffffffffffffffffffffffffff021916908373ffffffffffffffffffffffffffffffffffffffff160217905550818160010190816106899190611242565b50603c6001546106999190611314565b426106a49190610f91565b81600201819055506000816003018190555060008160040160006101000a81548173ffffffffffffffffffffffffffffffffffffffff021916908373ffffffffffffffffffffffffffffffffffffffff16021790555060008160060160006101000a81548160ff0219169083151502179055503373ffffffffffffffffffffffffffffffffffffffff167f0717d2ffb578ae200a3bbc92d0e3cbd3158ed1c0634e7777d854e7106d1dc4ef838360020154604051610763929190611356565b60405180910390a25050565b60006003600083815260200190815260200160002090508060060160009054906101000a900460ff16156107d8576040517f08c379a00000000000000000000000000000000000000000000000000000000081526004016107cf906113d2565b60405180910390fd5b806002015442101561081f576040517f08c379a00000000000000000000000000000000000000000000000000000000081526004016108169061143e565b60405180910390fd5b60018160060160006101000a81548160ff0219169083151502179055508060000160009054906101000a900473ffffffffffffffffffffffffffffffffffffffff1673ffffffffffffffffffffffffffffffffffffffff166108fc82600301549081150290604051600060405180830381858888f193505050501580156108aa573d6000803e3d6000fd5b507fd2aa34a4fdbbc6dff6a3e56f46e0f3ae2a31d7785ff3487aa5c95c642acea501828260040160009054906101000a900473ffffffffffffffffffffffffffffffffffffffff1683600301546040516109069392919061145e565b60405180910390a15050565b6000600254905090565b60015481565b6000606060008060008060006003600089815260200190815260200160002090508060000160009054906101000a900473ffffffffffffffffffffffffffffffffffffffff1681600101826002015483600301548460040160009054906101000a900473ffffffffffffffffffffffffffffffffffffffff168560060160009054906101000a900460ff168480546109b99061101d565b80601f01602080910402602001604051908101604052809291908181526020018280546109e59061101d565b8015610a325780601f10610a0757610100808354040283529160200191610a32565b820191906000526020600020905b815481529060010190602001808311610a1557829003601f168201915b505050505094509650965096509650965096505091939550919395565b60008054906101000a900473ffffffffffffffffffffffffffffffffffffffff1681565b6000604051905090565b600080fd5b600080fd5b6000819050919050565b610a9a81610a87565b8114610aa557600080fd5b50565b600081359050610ab781610a91565b92915050565b600060208284031215610ad357610ad2610a7d565b5b6000610ae184828501610aa8565b91505092915050565b600073ffffffffffffffffffffffffffffffffffffffff82169050919050565b6000610b1582610aea565b9050919050565b610b2581610b0a565b82525050565b600081519050919050565b600082825260208201905092915050565b60005b83811015610b65578082015181840152602081019050610b4a565b60008484015250505050565b6000601f19601f8301169050919050565b6000610b8d82610b2b565b610b978185610b36565b9350610ba7818560208601610b47565b610bb081610b71565b840191505092915050565b610bc481610a87565b82525050565b6000610bd582610aea565b9050919050565b610be581610bca565b82525050565b60008115159050919050565b610c0081610beb565b82525050565b600060c082019050610c1b6000830189610b1c565b8181036020830152610c2d8188610b82565b9050610c3c6040830187610bbb565b610c496060830186610bbb565b610c566080830185610bdc565b610c6360a0830184610bf7565b979650505050505050565b600080fd5b600080fd5b7f4e487b7100000000000000000000000000000000000000000000000000000000600052604160045260246000fd5b610cb082610b71565b810181811067ffffffffffffffff82111715610ccf57610cce610c78565b5b80604052505050565b6000610ce2610a73565b9050610cee8282610ca7565b919050565b600067ffffffffffffffff821115610d0e57610d0d610c78565b5b610d1782610b71565b9050602081019050919050565b82818337600083830152505050565b6000610d46610d4184610cf3565b610cd8565b905082815260208101848484011115610d6257610d61610c73565b5b610d6d848285610d24565b509392505050565b600082601f830112610d8a57610d89610c6e565b5b8135610d9a848260208601610d33565b91505092915050565b600060208284031215610db957610db8610a7d565b5b600082013567ffffffffffffffff811115610dd757610dd6610a82565b5b610de384828501610d75565b91505092915050565b6000602082019050610e016000830184610bbb565b92915050565b600060c082019050610e1c6000830189610bdc565b8181036020830152610e2e8188610b82565b9050610e3d6040830187610bbb565b610e4a6060830186610bbb565b610e576080830185610bdc565b610e6460a0830184610bf7565b979650505050505050565b6000602082019050610e846000830184610bdc565b92915050565b7f41756374696f6e2068617320656e6465642e0000000000000000000000000000600082015250565b6000610ec0601283610b36565b9150610ecb82610e8a565b602082019050919050565b60006020820190508181036000830152610eef81610eb3565b9050919050565b7f42696420697320746f6f206c6f772e0000000000000000000000000000000000600082015250565b6000610f2c600f83610b36565b9150610f3782610ef6565b602082019050919050565b60006020820190508181036000830152610f5b81610f1f565b9050919050565b7f4e487b7100000000000000000000000000000000000000000000000000000000600052601160045260246000fd5b6000610f9c82610a87565b9150610fa783610a87565b9250828201905080821115610fbf57610fbe610f62565b5b92915050565b6000604082019050610fda6000830185610bbb565b610fe76020830184610bbb565b9392505050565b7f4e487b7100000000000000000000000000000000000000000000000000000000600052602260045260246000fd5b6000600282049050600182168061103557607f821691505b60208210810361104857611047610fee565b5b50919050565b600061105982610a87565b91507fffffffffffffffffffffffffffffffffffffffffffffffffffffffffffffffff820361108b5761108a610f62565b5b600182019050919050565b60008190508160005260206000209050919050565b60006020601f8301049050919050565b600082821b905092915050565b6000600883026110f87fffffffffffffffffffffffffffffffffffffffffffffffffffffffffffffffff826110bb565b61110286836110bb565b95508019841693508086168417925050509392505050565b6000819050919050565b600061113f61113a61113584610a87565b61111a565b610a87565b9050919050565b6000819050919050565b61115983611124565b61116d61116582611146565b8484546110c8565b825550505050565b600090565b611182611175565b61118d818484611150565b505050565b5b818110156111b1576111a660008261117a565b600181019050611193565b5050565b601f8211156111f6576111c781611096565b6111d0846110ab565b810160208510156111df578190505b6111f36111eb856110ab565b830182611192565b50505b505050565b600082821c905092915050565b6000611219600019846008026111fb565b1980831691505092915050565b60006112328383611208565b9150826002028217905092915050565b61124b82610b2b565b67ffffffffffffffff81111561126457611263610c78565b5b61126e825461101d565b6112798282856111b5565b600060209050601f8311600181146112ac576000841561129a578287015190505b6112a48582611226565b86555061130c565b601f1984166112ba86611096565b60005b828110156112e2578489015182556001820191506020850194506020810190506112bd565b868310156112ff57848901516112fb601f891682611208565b8355505b6001600288020188555050505b505050505050565b600061131f82610a87565b915061132a83610a87565b925082820261133881610a87565b9150828204841483151761134f5761134e610f62565b5b5092915050565b600060408201905081810360008301526113708185610b82565b905061137f6020830184610bbb565b9392505050565b7f41756374696f6e2068617320616c726561647920656e6465642e000000000000600082015250565b60006113bc601a83610b36565b91506113c782611386565b602082019050919050565b600060208201905081810360008301526113eb816113af565b9050919050565b7f41756374696f6e20686173206e6f742079657420656e6465642e000000000000600082015250565b6000611428601a83610b36565b9150611433826113f2565b602082019050919050565b600060208201905081810360008301526114578161141b565b9050919050565b60006060820190506114736000830186610bbb565b6114806020830185610bdc565b61148d6040830184610bbb565b94935050505056fea2646970667358221220e0a22f32c55adc9b3614bd9df1c80eb690fc03a603c5be62f5b4ad7cbb9ef93b64736f6c63430008120033",
  "immutableReferences": {},
  "source": "// SPDX-License-Identifier: UNLICENSED\r\n\r\npragma solidity ^0.8.0;\r\n\r\ncontract MultiAuction {\r\n\r\n    struct Auction {\r\n        address payable owner;\r\n        string itemName;\r\n        uint auctionEndTime;\r\n        uint highestBid;\r\n        address highestBidder;\r\n        mapping(address => uint) bids;\r\n        bool ended;\r\n    }\r\n    address public admin;\r\n    uint public auctionDurationMinutes;\r\n   \r\n    uint numRequests;\r\n    mapping(uint =>Auction) public auctionss;\r\n\r\n    event NewAuction(address indexed owner, string itemName, uint auctionEndTime);\r\n    event NewBid(uint auctionIndex, address indexed bidder, uint amount);\r\n    event AuctionEnded(uint auctionIndex, address winner, uint amount);\r\n\r\n    constructor() {\r\n        admin = msg.sender;\r\n    }\r\n\r\n    function setduration(uint _duration) public{\r\n        auctionDurationMinutes = _duration;\r\n    }\r\n    function createAuction(string memory _itemName) public {\r\n\r\n            Auction storage auc = auctionss[numRequests++];\r\n\r\n\r\n            // Auction storage newAuction = Auction({\r\n            auc.owner= payable(msg.sender);\r\n            auc.itemName= _itemName;\r\n            auc.auctionEndTime= block.timestamp + (auctionDurationMinutes * 1 minutes);\r\n            auc.highestBid= 0;\r\n            auc.highestBidder= address(0);\r\n            auc.ended= false;\r\n\r\n            // auctions.push(auc);\r\n        // auctions.push(newAuction);\r\n\r\n        emit NewAuction(msg.sender, _itemName, auc.auctionEndTime);\r\n    }\r\n\r\n    function bid(uint auctionIndex) public payable {\r\n        Auction storage auction = auctionss[auctionIndex];\r\n\r\n        require(!auction.ended, \"Auction has ended.\");\r\n        require(block.timestamp < auction.auctionEndTime, \"Auction has ended.\");\r\n        require(msg.value > auction.highestBid, \"Bid is too low.\");\r\n\r\n        if (auction.highestBidder != address(0)) {\r\n            auction.bids[auction.highestBidder] += auction.highestBid;\r\n        }\r\n\r\n        auction.highestBid = msg.value;\r\n        auction.highestBidder = msg.sender;\r\n\r\n        auction.bids[msg.sender] += msg.value;\r\n\r\n        emit NewBid(auctionIndex, msg.sender, msg.value);\r\n    }\r\n\r\n    function endAuction(uint auctionIndex) public {\r\n        Auction storage auction = auctionss[auctionIndex];\r\n\r\n        require(!auction.ended, \"Auction has already ended.\");\r\n        require(block.timestamp >= auction.auctionEndTime, \"Auction has not yet ended.\");\r\n\r\n        auction.ended = true;\r\n        auction.owner.transfer(auction.highestBid);\r\n\r\n        emit AuctionEnded(auctionIndex, auction.highestBidder, auction.highestBid);\r\n    }\r\n\r\n    function getAuctionsCount() public view returns (uint) {\r\n        return numRequests;\r\n    }\r\n\r\n    function getAuctionDetails(uint auctionIndex) public view returns (address, string memory, uint, uint, address, bool) {\r\n        Auction storage auction = auctionss[auctionIndex];\r\n        return (auction.owner, auction.itemName, auction.auctionEndTime, auction.highestBid, auction.highestBidder, auction.ended);\r\n    }\r\n}\r\n\r\n",
  "sourcePath": "C:\\Users\\Shubham\\OneDrive\\Desktop\\Auction\\contracts\\MultiAuction.sol",
  "compiler": {
    "name": "solc",
    "version": "0.8.18+commit.87f61d96.Emscripten.clang"
  },
  "schemaVersion": "3.4.12",
  "updatedAt": "2023-05-05T15:17:15.462Z",
  "networkType": "ethereum",
  "devdoc": {
    "kind": "dev",
    "methods": {},
    "version": 1
  },
  "userdoc": {
    "kind": "user",
    "methods": {},
    "version": 1
  }
}